{
  "_format": "hh-sol-artifact-1",
  "contractName": "NewsRegistry",
  "sourceName": "contracts/NewsRegistry.sol",
  "abi": [
    {
      "inputs": [
        {
          "internalType": "address",
          "name": "_publisherRegistry",
          "type": "address"
        },
        {
          "internalType": "uint256",
          "name": "_votingPeriod",
          "type": "uint256"
        },
        {
          "internalType": "uint256",
          "name": "_minVotes",
          "type": "uint256"
        }
      ],
      "stateMutability": "nonpayable",
      "type": "constructor"
    },
    {
      "inputs": [
        {
          "internalType": "address",
          "name": "owner",
          "type": "address"
        }
      ],
      "name": "OwnableInvalidOwner",
      "type": "error"
    },
    {
      "inputs": [
        {
          "internalType": "address",
          "name": "account",
          "type": "address"
        }
      ],
      "name": "OwnableUnauthorizedAccount",
      "type": "error"
    },
    {
      "anonymous": false,
      "inputs": [
        {
          "indexed": true,
          "internalType": "bytes32",
          "name": "contentHash",
          "type": "bytes32"
        },
        {
          "indexed": false,
          "internalType": "enum NewsRegistry.Status",
          "name": "finalStatus",
          "type": "uint8"
        }
      ],
      "name": "Finalized",
      "type": "event"
    },
    {
      "anonymous": false,
      "inputs": [
        {
          "indexed": true,
          "internalType": "address",
          "name": "previousOwner",
          "type": "address"
        },
        {
          "indexed": true,
          "internalType": "address",
          "name": "newOwner",
          "type": "address"
        }
      ],
      "name": "OwnershipTransferred",
      "type": "event"
    },
    {
      "anonymous": false,
      "inputs": [
        {
          "indexed": true,
          "internalType": "bytes32",
          "name": "contentHash",
          "type": "bytes32"
        }
      ],
      "name": "PublisherAutoVerified",
      "type": "event"
    },
    {
      "anonymous": false,
      "inputs": [
        {
          "indexed": true,
          "internalType": "bytes32",
          "name": "contentHash",
          "type": "bytes32"
        },
        {
          "indexed": true,
          "internalType": "address",
          "name": "submitter",
          "type": "address"
        },
        {
          "indexed": false,
          "internalType": "string",
          "name": "uri",
          "type": "string"
        }
      ],
      "name": "Submitted",
      "type": "event"
    },
    {
      "anonymous": false,
      "inputs": [
        {
          "indexed": true,
          "internalType": "bytes32",
          "name": "contentHash",
          "type": "bytes32"
        },
        {
          "indexed": true,
          "internalType": "address",
          "name": "voter",
          "type": "address"
        },
        {
          "indexed": false,
          "internalType": "bool",
          "name": "support",
          "type": "bool"
        }
      ],
      "name": "Voted",
      "type": "event"
    },
    {
      "inputs": [
        {
          "internalType": "bytes32",
          "name": "",
          "type": "bytes32"
        }
      ],
      "name": "articles",
      "outputs": [
        {
          "internalType": "bytes32",
          "name": "contentHash",
          "type": "bytes32"
        },
        {
          "internalType": "string",
          "name": "uri",
          "type": "string"
        },
        {
          "internalType": "address",
          "name": "publisher",
          "type": "address"
        },
        {
          "internalType": "address",
          "name": "submitter",
          "type": "address"
        },
        {
          "internalType": "uint256",
          "name": "createdAt",
          "type": "uint256"
        },
        {
          "internalType": "enum NewsRegistry.Status",
          "name": "status",
          "type": "uint8"
        },
        {
          "internalType": "uint256",
          "name": "yesVotes",
          "type": "uint256"
        },
        {
          "internalType": "uint256",
          "name": "noVotes",
          "type": "uint256"
        },
        {
          "internalType": "bool",
          "name": "finalized",
          "type": "bool"
        }
      ],
      "stateMutability": "view",
      "type": "function"
    },
    {
      "inputs": [
        {
          "internalType": "bytes32",
          "name": "_contentHash",
          "type": "bytes32"
        }
      ],
      "name": "getArticle",
      "outputs": [
        {
          "internalType": "bytes32",
          "name": "contentHash",
          "type": "bytes32"
        },
        {
          "internalType": "string",
          "name": "uri",
          "type": "string"
        },
        {
          "internalType": "address",
          "name": "publisher",
          "type": "address"
        },
        {
          "internalType": "address",
          "name": "submitter",
          "type": "address"
        },
        {
          "internalType": "uint256",
          "name": "createdAt",
          "type": "uint256"
        },
        {
          "internalType": "enum NewsRegistry.Status",
          "name": "status",
          "type": "uint8"
        },
        {
          "internalType": "uint256",
          "name": "yesVotes",
          "type": "uint256"
        },
        {
          "internalType": "uint256",
          "name": "noVotes",
          "type": "uint256"
        },
        {
          "internalType": "bool",
          "name": "finalized",
          "type": "bool"
        }
      ],
      "stateMutability": "view",
      "type": "function"
    },
    {
      "inputs": [
        {
          "internalType": "bytes32",
          "name": "",
          "type": "bytes32"
        },
        {
          "internalType": "address",
          "name": "",
          "type": "address"
        }
      ],
      "name": "hasVoted",
      "outputs": [
        {
          "internalType": "bool",
          "name": "",
          "type": "bool"
        }
      ],
      "stateMutability": "view",
      "type": "function"
    },
    {
      "inputs": [],
      "name": "minVotes",
      "outputs": [
        {
          "internalType": "uint256",
          "name": "",
          "type": "uint256"
        }
      ],
      "stateMutability": "view",
      "type": "function"
    },
    {
      "inputs": [],
      "name": "owner",
      "outputs": [
        {
          "internalType": "address",
          "name": "",
          "type": "address"
        }
      ],
      "stateMutability": "view",
      "type": "function"
    },
    {
      "inputs": [],
      "name": "publisherRegistry",
      "outputs": [
        {
          "internalType": "contract IPublisherRegistry",
          "name": "",
          "type": "address"
        }
      ],
      "stateMutability": "view",
      "type": "function"
    },
    {
      "inputs": [],
      "name": "renounceOwnership",
      "outputs": [],
      "stateMutability": "nonpayable",
      "type": "function"
    },
    {
      "inputs": [
        {
          "internalType": "uint256",
          "name": "_votingPeriod",
          "type": "uint256"
        },
        {
          "internalType": "uint256",
          "name": "_minVotes",
          "type": "uint256"
        }
      ],
      "name": "setVotingParams",
      "outputs": [],
      "stateMutability": "nonpayable",
      "type": "function"
    },
    {
      "inputs": [
        {
          "internalType": "bytes32",
          "name": "_contentHash",
          "type": "bytes32"
        },
        {
          "internalType": "string",
          "name": "_uri",
          "type": "string"
        },
        {
          "internalType": "address",
          "name": "_publisher",
          "type": "address"
        }
      ],
      "name": "submitArticle",
      "outputs": [],
      "stateMutability": "nonpayable",
      "type": "function"
    },
    {
      "inputs": [
        {
          "internalType": "address",
          "name": "newOwner",
          "type": "address"
        }
      ],
      "name": "transferOwnership",
      "outputs": [],
      "stateMutability": "nonpayable",
      "type": "function"
    },
    {
      "inputs": [
        {
          "internalType": "bytes32",
          "name": "_contentHash",
          "type": "bytes32"
        },
        {
          "internalType": "bool",
          "name": "support",
          "type": "bool"
        }
      ],
      "name": "vote",
      "outputs": [],
      "stateMutability": "nonpayable",
      "type": "function"
    },
    {
      "inputs": [],
      "name": "votingPeriod",
      "outputs": [
        {
          "internalType": "uint256",
          "name": "",
          "type": "uint256"
        }
      ],
      "stateMutability": "view",
      "type": "function"
    }
  ],
  "bytecode": "0x60806040523480156200001157600080fd5b5060405162001d0938038062001d09833981810160405281019062000037919062000280565b33600073ffffffffffffffffffffffffffffffffffffffff168173ffffffffffffffffffffffffffffffffffffffff1603620000ad5760006040517f1e4fbdf7000000000000000000000000000000000000000000000000000000008152600401620000a49190620002ed565b60405180910390fd5b620000be816200011760201b60201c565b5082600160006101000a81548173ffffffffffffffffffffffffffffffffffffffff021916908373ffffffffffffffffffffffffffffffffffffffff16021790555081600281905550806003819055505050506200030a565b60008060009054906101000a900473ffffffffffffffffffffffffffffffffffffffff169050816000806101000a81548173ffffffffffffffffffffffffffffffffffffffff021916908373ffffffffffffffffffffffffffffffffffffffff1602179055508173ffffffffffffffffffffffffffffffffffffffff168173ffffffffffffffffffffffffffffffffffffffff167f8be0079c531659141344cd1fd0a4f28419497f9722a3daafe3b4186f6b6457e060405160405180910390a35050565b600080fd5b600073ffffffffffffffffffffffffffffffffffffffff82169050919050565b60006200020d82620001e0565b9050919050565b6200021f8162000200565b81146200022b57600080fd5b50565b6000815190506200023f8162000214565b92915050565b6000819050919050565b6200025a8162000245565b81146200026657600080fd5b50565b6000815190506200027a816200024f565b92915050565b6000806000606084860312156200029c576200029b620001db565b5b6000620002ac868287016200022e565b9350506020620002bf8682870162000269565b9250506040620002d28682870162000269565b9150509250925092565b620002e78162000200565b82525050565b6000602082019050620003046000830184620002dc565b92915050565b6119ef806200031a6000396000f3fe608060405234801561001057600080fd5b50600436106100b45760003560e01c80638da5cb5b116100715780638da5cb5b1461018d5780639f2ce678146101ab578063aadc3b72146101c7578063e3d36403146101f7578063ecbcb73314610213578063f2fde38b1461022f576100b4565b806302a251a3146100b95780631ba395dd146100d75780632894ceda1461010f5780633cc228fd1461012d57806351da8a4f1461014b578063715018a614610183575b600080fd5b6100c161024b565b6040516100ce9190610e55565b60405180910390f35b6100f160048036038101906100ec9190610eb0565b610251565b6040516101069998979695949392919061104f565b60405180910390f35b6101176103a8565b6040516101249190611142565b60405180910390f35b6101356103ce565b6040516101429190610e55565b60405180910390f35b61016560048036038101906101609190610eb0565b6103d4565b60405161017a9998979695949392919061104f565b60405180910390f35b61018b610504565b005b610195610518565b6040516101a2919061115d565b60405180910390f35b6101c560048036038101906101c091906111a4565b610541565b005b6101e160048036038101906101dc9190611210565b6108eb565b6040516101ee9190611250565b60405180910390f35b610211600480360381019061020c91906112d0565b61091a565b005b61022d60048036038101906102289190611370565b610c49565b005b610249600480360381019061024491906113b0565b610c63565b005b60025481565b60006060600080600080600080600080600460008c815260200190815260200160002090508060000154816001018260020160009054906101000a900473ffffffffffffffffffffffffffffffffffffffff168360030160009054906101000a900473ffffffffffffffffffffffffffffffffffffffff1684600401548560050160009054906101000a900460ff16866006015487600701548860080160009054906101000a900460ff168780546103089061140c565b80601f01602080910402602001604051908101604052809291908181526020018280546103349061140c565b80156103815780601f1061035657610100808354040283529160200191610381565b820191906000526020600020905b81548152906001019060200180831161036457829003601f168201915b50505050509750995099509950995099509950995099509950509193959799909294969850565b600160009054906101000a900473ffffffffffffffffffffffffffffffffffffffff1681565b60035481565b60046020528060005260406000206000915090508060000154908060010180546103fd9061140c565b80601f01602080910402602001604051908101604052809291908181526020018280546104299061140c565b80156104765780601f1061044b57610100808354040283529160200191610476565b820191906000526020600020905b81548152906001019060200180831161045957829003601f168201915b5050505050908060020160009054906101000a900473ffffffffffffffffffffffffffffffffffffffff16908060030160009054906101000a900473ffffffffffffffffffffffffffffffffffffffff16908060040154908060050160009054906101000a900460ff16908060060154908060070154908060080160009054906101000a900460ff16905089565b61050c610ce9565b6105166000610d70565b565b60008060009054906101000a900473ffffffffffffffffffffffffffffffffffffffff16905090565b6000600460008481526020019081526020016000209050600081600401540361059f576040517f08c379a000000000000000000000000000000000000000000000000000000000815260040161059690611489565b60405180910390fd5b8060080160009054906101000a900460ff16156105f1576040517f08c379a00000000000000000000000000000000000000000000000000000000081526004016105e8906114f5565b60405180910390fd5b6005600084815260200190815260200160002060003373ffffffffffffffffffffffffffffffffffffffff1673ffffffffffffffffffffffffffffffffffffffff16815260200190815260200160002060009054906101000a900460ff161561068f576040517f08c379a000000000000000000000000000000000000000000000000000000000815260040161068690611561565b60405180910390fd5b60016005600085815260200190815260200160002060003373ffffffffffffffffffffffffffffffffffffffff1673ffffffffffffffffffffffffffffffffffffffff16815260200190815260200160002060006101000a81548160ff021916908315150217905550811561071f57600181600601600082825461071391906115b0565b9250508190555061073c565b600181600701600082825461073491906115b0565b925050819055505b3373ffffffffffffffffffffffffffffffffffffffff16837f16efd9a5766ad43ca179f5ef58b8748c48ddedd2dd2a228460465bfa90d4d069846040516107839190611250565b60405180910390a36000816007015482600601546107a191906115b0565b905060035481101580156107c6575060025482600401546107c291906115b0565b4210155b156108e55781600701548260060154111561080d5760018260050160006101000a81548160ff0219169083600381111561080357610802610fbd565b5b021790555061087e565b81600601548260070154111561084f5760028260050160006101000a81548160ff0219169083600381111561084557610844610fbd565b5b021790555061087d565b60038260050160006101000a81548160ff0219169083600381111561087757610876610fbd565b5b02179055505b5b60018260080160006101000a81548160ff021916908315150217905550837f229a74f8f240839ae623fe7162e0d104069125357819563bcc91b95fe57c9e5a8360050160009054906101000a900460ff166040516108dc91906115e4565b60405180910390a25b50505050565b60056020528160005260406000206020528060005260406000206000915091509054906101000a900460ff1681565b60006004600086815260200190815260200160002090506000816004015414610978576040517f08c379a000000000000000000000000000000000000000000000000000000000815260040161096f9061164b565b60405180910390fd5b8481600001819055508383826001019182610994929190611847565b50818160020160006101000a81548173ffffffffffffffffffffffffffffffffffffffff021916908373ffffffffffffffffffffffffffffffffffffffff160217905550338160030160006101000a81548173ffffffffffffffffffffffffffffffffffffffff021916908373ffffffffffffffffffffffffffffffffffffffff16021790555042816004018190555060008160050160006101000a81548160ff02191690836003811115610a4c57610a4b610fbd565b5b0217905550600073ffffffffffffffffffffffffffffffffffffffff168273ffffffffffffffffffffffffffffffffffffffff1614158015610b265750600160009054906101000a900473ffffffffffffffffffffffffffffffffffffffff1673ffffffffffffffffffffffffffffffffffffffff166396d64879836040518263ffffffff1660e01b8152600401610ae4919061115d565b602060405180830381865afa158015610b01573d6000803e3d6000fd5b505050506040513d601f19601f82011682018060405250810190610b25919061192c565b5b15610bf05760018160050160006101000a81548160ff02191690836003811115610b5357610b52610fbd565b5b021790555060018160080160006101000a81548160ff021916908315150217905550847f6a0948cb4b99cd1af7ecc654311823582356ce89300dd4dc9306c6809b1323bf60405160405180910390a2847f229a74f8f240839ae623fe7162e0d104069125357819563bcc91b95fe57c9e5a8260050160009054906101000a900460ff16604051610be391906115e4565b60405180910390a2610c42565b3373ffffffffffffffffffffffffffffffffffffffff16857f1c5a1130841a51cb93fb5ff4077371ed9d8a5080c0255248de35a575491f83888686604051610c39929190611995565b60405180910390a35b5050505050565b610c51610ce9565b81600281905550806003819055505050565b610c6b610ce9565b600073ffffffffffffffffffffffffffffffffffffffff168173ffffffffffffffffffffffffffffffffffffffff1603610cdd5760006040517f1e4fbdf7000000000000000000000000000000000000000000000000000000008152600401610cd4919061115d565b60405180910390fd5b610ce681610d70565b50565b610cf1610e34565b73ffffffffffffffffffffffffffffffffffffffff16610d0f610518565b73ffffffffffffffffffffffffffffffffffffffff1614610d6e57610d32610e34565b6040517f118cdaa7000000000000000000000000000000000000000000000000000000008152600401610d65919061115d565b60405180910390fd5b565b60008060009054906101000a900473ffffffffffffffffffffffffffffffffffffffff169050816000806101000a81548173ffffffffffffffffffffffffffffffffffffffff021916908373ffffffffffffffffffffffffffffffffffffffff1602179055508173ffffffffffffffffffffffffffffffffffffffff168173ffffffffffffffffffffffffffffffffffffffff167f8be0079c531659141344cd1fd0a4f28419497f9722a3daafe3b4186f6b6457e060405160405180910390a35050565b600033905090565b6000819050919050565b610e4f81610e3c565b82525050565b6000602082019050610e6a6000830184610e46565b92915050565b600080fd5b600080fd5b6000819050919050565b610e8d81610e7a565b8114610e9857600080fd5b50565b600081359050610eaa81610e84565b92915050565b600060208284031215610ec657610ec5610e70565b5b6000610ed484828501610e9b565b91505092915050565b610ee681610e7a565b82525050565b600081519050919050565b600082825260208201905092915050565b60005b83811015610f26578082015181840152602081019050610f0b565b60008484015250505050565b6000601f19601f8301169050919050565b6000610f4e82610eec565b610f588185610ef7565b9350610f68818560208601610f08565b610f7181610f32565b840191505092915050565b600073ffffffffffffffffffffffffffffffffffffffff82169050919050565b6000610fa782610f7c565b9050919050565b610fb781610f9c565b82525050565b7f4e487b7100000000000000000000000000000000000000000000000000000000600052602160045260246000fd5b60048110610ffd57610ffc610fbd565b5b50565b600081905061100e82610fec565b919050565b600061101e82611000565b9050919050565b61102e81611013565b82525050565b60008115159050919050565b61104981611034565b82525050565b600061012082019050611065600083018c610edd565b8181036020830152611077818b610f43565b9050611086604083018a610fae565b6110936060830189610fae565b6110a06080830188610e46565b6110ad60a0830187611025565b6110ba60c0830186610e46565b6110c760e0830185610e46565b6110d5610100830184611040565b9a9950505050505050505050565b6000819050919050565b60006111086111036110fe84610f7c565b6110e3565b610f7c565b9050919050565b600061111a826110ed565b9050919050565b600061112c8261110f565b9050919050565b61113c81611121565b82525050565b60006020820190506111576000830184611133565b92915050565b60006020820190506111726000830184610fae565b92915050565b61118181611034565b811461118c57600080fd5b50565b60008135905061119e81611178565b92915050565b600080604083850312156111bb576111ba610e70565b5b60006111c985828601610e9b565b92505060206111da8582860161118f565b9150509250929050565b6111ed81610f9c565b81146111f857600080fd5b50565b60008135905061120a816111e4565b92915050565b6000806040838503121561122757611226610e70565b5b600061123585828601610e9b565b9250506020611246858286016111fb565b9150509250929050565b60006020820190506112656000830184611040565b92915050565b600080fd5b600080fd5b600080fd5b60008083601f8401126112905761128f61126b565b5b8235905067ffffffffffffffff8111156112ad576112ac611270565b5b6020830191508360018202830111156112c9576112c8611275565b5b9250929050565b600080600080606085870312156112ea576112e9610e70565b5b60006112f887828801610e9b565b945050602085013567ffffffffffffffff81111561131957611318610e75565b5b6113258782880161127a565b93509350506040611338878288016111fb565b91505092959194509250565b61134d81610e3c565b811461135857600080fd5b50565b60008135905061136a81611344565b92915050565b6000806040838503121561138757611386610e70565b5b60006113958582860161135b565b92505060206113a68582860161135b565b9150509250929050565b6000602082840312156113c6576113c5610e70565b5b60006113d4848285016111fb565b91505092915050565b7f4e487b7100000000000000000000000000000000000000000000000000000000600052602260045260246000fd5b6000600282049050600182168061142457607f821691505b602082108103611437576114366113dd565b5b50919050565b7f4e6f74207375626d697474656400000000000000000000000000000000000000600082015250565b6000611473600d83610ef7565b915061147e8261143d565b602082019050919050565b600060208201905081810360008301526114a281611466565b9050919050565b7f416c72656164792066696e616c697a6564000000000000000000000000000000600082015250565b60006114df601183610ef7565b91506114ea826114a9565b602082019050919050565b6000602082019050818103600083015261150e816114d2565b9050919050565b7f416c726561647920766f74656400000000000000000000000000000000000000600082015250565b600061154b600d83610ef7565b915061155682611515565b602082019050919050565b6000602082019050818103600083015261157a8161153e565b9050919050565b7f4e487b7100000000000000000000000000000000000000000000000000000000600052601160045260246000fd5b60006115bb82610e3c565b91506115c683610e3c565b92508282019050808211156115de576115dd611581565b5b92915050565b60006020820190506115f96000830184611025565b92915050565b7f416c7265616479207375626d6974746564000000000000000000000000000000600082015250565b6000611635601183610ef7565b9150611640826115ff565b602082019050919050565b6000602082019050818103600083015261166481611628565b9050919050565b600082905092915050565b7f4e487b7100000000000000000000000000000000000000000000000000000000600052604160045260246000fd5b60008190508160005260206000209050919050565b60006020601f8301049050919050565b600082821b905092915050565b6000600883026117077fffffffffffffffffffffffffffffffffffffffffffffffffffffffffffffffff826116ca565b61171186836116ca565b95508019841693508086168417925050509392505050565b600061174461173f61173a84610e3c565b6110e3565b610e3c565b9050919050565b6000819050919050565b61175e83611729565b61177261176a8261174b565b8484546116d7565b825550505050565b600090565b61178761177a565b611792818484611755565b505050565b5b818110156117b6576117ab60008261177f565b600181019050611798565b5050565b601f8211156117fb576117cc816116a5565b6117d5846116ba565b810160208510156117e4578190505b6117f86117f0856116ba565b830182611797565b50505b505050565b600082821c905092915050565b600061181e60001984600802611800565b1980831691505092915050565b6000611837838361180d565b9150826002028217905092915050565b611851838361166b565b67ffffffffffffffff81111561186a57611869611676565b5b611874825461140c565b61187f8282856117ba565b6000601f8311600181146118ae576000841561189c578287013590505b6118a6858261182b565b86555061190e565b601f1984166118bc866116a5565b60005b828110156118e4578489013582556001820191506020850194506020810190506118bf565b8683101561190157848901356118fd601f89168261180d565b8355505b6001600288020188555050505b50505050505050565b60008151905061192681611178565b92915050565b60006020828403121561194257611941610e70565b5b600061195084828501611917565b91505092915050565b82818337600083830152505050565b60006119748385610ef7565b9350611981838584611959565b61198a83610f32565b840190509392505050565b600060208201905081810360008301526119b0818486611968565b9050939250505056fea26469706673582212207a5b8afc77a6ce216b458f01c2037ff31a1a3296968b86b3b6e8b958161244ee64736f6c63430008140033",
  "linkReferences": {},
  "deployedLinkReferences": {}
}